{
  "contractName": "SupplyChain",
  "abi": [
    {
      "anonymous": false,
      "inputs": [
        {
          "indexed": true,
          "internalType": "uint256",
          "name": "id",
          "type": "uint256"
        },
        {
          "indexed": false,
          "internalType": "string",
          "name": "name",
          "type": "string"
        },
        {
          "indexed": false,
          "internalType": "address",
          "name": "manufacturer",
          "type": "address"
        }
      ],
      "name": "ProductCreated",
      "type": "event"
    },
    {
      "anonymous": false,
      "inputs": [
        {
          "indexed": true,
          "internalType": "uint256",
          "name": "id",
          "type": "uint256"
        },
        {
          "indexed": false,
          "internalType": "address",
          "name": "from",
          "type": "address"
        },
        {
          "indexed": false,
          "internalType": "address",
          "name": "to",
          "type": "address"
        }
      ],
      "name": "ProductTransferred",
      "type": "event"
    },
    {
      "anonymous": false,
      "inputs": [
        {
          "indexed": true,
          "internalType": "uint256",
          "name": "id",
          "type": "uint256"
        },
        {
          "indexed": false,
          "internalType": "address",
          "name": "verifier",
          "type": "address"
        }
      ],
      "name": "ProductVerified",
      "type": "event"
    },
    {
      "anonymous": false,
      "inputs": [
        {
          "indexed": true,
          "internalType": "uint256",
          "name": "id",
          "type": "uint256"
        },
        {
          "indexed": false,
          "internalType": "string",
          "name": "status",
          "type": "string"
        }
      ],
      "name": "StatusUpdated",
      "type": "event"
    },
    {
      "anonymous": false,
      "inputs": [
        {
          "indexed": true,
          "internalType": "uint256",
          "name": "id",
          "type": "uint256"
        },
        {
          "indexed": false,
          "internalType": "address",
          "name": "from",
          "type": "address"
        },
        {
          "indexed": false,
          "internalType": "address",
          "name": "to",
          "type": "address"
        }
      ],
      "name": "TransactionRecorded",
      "type": "event"
    },
    {
      "inputs": [],
      "name": "productCount",
      "outputs": [
        {
          "internalType": "uint256",
          "name": "",
          "type": "uint256"
        }
      ],
      "stateMutability": "view",
      "type": "function",
      "constant": true
    },
    {
      "inputs": [
        {
          "internalType": "uint256",
          "name": "",
          "type": "uint256"
        }
      ],
      "name": "products",
      "outputs": [
        {
          "internalType": "uint256",
          "name": "id",
          "type": "uint256"
        },
        {
          "internalType": "string",
          "name": "name",
          "type": "string"
        },
        {
          "internalType": "string",
          "name": "description",
          "type": "string"
        },
        {
          "internalType": "uint256",
          "name": "price",
          "type": "uint256"
        },
        {
          "internalType": "address",
          "name": "manufacturer",
          "type": "address"
        },
        {
          "internalType": "address",
          "name": "currentOwner",
          "type": "address"
        },
        {
          "internalType": "uint256",
          "name": "timestamp",
          "type": "uint256"
        },
        {
          "internalType": "bool",
          "name": "isAvailable",
          "type": "bool"
        },
        {
          "internalType": "bool",
          "name": "isVerified",
          "type": "bool"
        }
      ],
      "stateMutability": "view",
      "type": "function",
      "constant": true
    },
    {
      "inputs": [
        {
          "internalType": "uint256",
          "name": "",
          "type": "uint256"
        },
        {
          "internalType": "uint256",
          "name": "",
          "type": "uint256"
        }
      ],
      "name": "trackingHistory",
      "outputs": [
        {
          "internalType": "address",
          "name": "location",
          "type": "address"
        },
        {
          "internalType": "string",
          "name": "status",
          "type": "string"
        },
        {
          "internalType": "uint256",
          "name": "timestamp",
          "type": "uint256"
        },
        {
          "internalType": "string",
          "name": "verificationNote",
          "type": "string"
        },
        {
          "internalType": "address",
          "name": "verifiedBy",
          "type": "address"
        }
      ],
      "stateMutability": "view",
      "type": "function",
      "constant": true
    },
    {
      "inputs": [
        {
          "internalType": "uint256",
          "name": "",
          "type": "uint256"
        },
        {
          "internalType": "uint256",
          "name": "",
          "type": "uint256"
        }
      ],
      "name": "transactions",
      "outputs": [
        {
          "internalType": "uint256",
          "name": "productId",
          "type": "uint256"
        },
        {
          "internalType": "address",
          "name": "from",
          "type": "address"
        },
        {
          "internalType": "address",
          "name": "to",
          "type": "address"
        },
        {
          "internalType": "uint256",
          "name": "timestamp",
          "type": "uint256"
        },
        {
          "internalType": "string",
          "name": "note",
          "type": "string"
        }
      ],
      "stateMutability": "view",
      "type": "function",
      "constant": true
    },
    {
      "inputs": [
        {
          "internalType": "string",
          "name": "_name",
          "type": "string"
        },
        {
          "internalType": "string",
          "name": "_description",
          "type": "string"
        },
        {
          "internalType": "uint256",
          "name": "_price",
          "type": "uint256"
        }
      ],
      "name": "createProduct",
      "outputs": [],
      "stateMutability": "nonpayable",
      "type": "function"
    },
    {
      "inputs": [
        {
          "internalType": "uint256",
          "name": "_productId",
          "type": "uint256"
        },
        {
          "internalType": "address",
          "name": "_newOwner",
          "type": "address"
        },
        {
          "internalType": "string",
          "name": "_note",
          "type": "string"
        }
      ],
      "name": "transferProduct",
      "outputs": [],
      "stateMutability": "nonpayable",
      "type": "function"
    },
    {
      "inputs": [
        {
          "internalType": "uint256",
          "name": "_productId",
          "type": "uint256"
        },
        {
          "internalType": "string",
          "name": "_verificationNote",
          "type": "string"
        }
      ],
      "name": "verifyProduct",
      "outputs": [],
      "stateMutability": "nonpayable",
      "type": "function"
    },
    {
      "inputs": [
        {
          "internalType": "uint256",
          "name": "_productId",
          "type": "uint256"
        },
        {
          "internalType": "string",
          "name": "_status",
          "type": "string"
        },
        {
          "internalType": "string",
          "name": "_note",
          "type": "string"
        }
      ],
      "name": "updateStatus",
      "outputs": [],
      "stateMutability": "nonpayable",
      "type": "function"
    },
    {
      "inputs": [
        {
          "internalType": "uint256",
          "name": "_productId",
          "type": "uint256"
        }
      ],
      "name": "getProduct",
      "outputs": [
        {
          "internalType": "uint256",
          "name": "id",
          "type": "uint256"
        },
        {
          "internalType": "string",
          "name": "name",
          "type": "string"
        },
        {
          "internalType": "string",
          "name": "description",
          "type": "string"
        },
        {
          "internalType": "uint256",
          "name": "price",
          "type": "uint256"
        },
        {
          "internalType": "address",
          "name": "manufacturer",
          "type": "address"
        },
        {
          "internalType": "address",
          "name": "currentOwner",
          "type": "address"
        },
        {
          "internalType": "uint256",
          "name": "timestamp",
          "type": "uint256"
        },
        {
          "internalType": "bool",
          "name": "isAvailable",
          "type": "bool"
        },
        {
          "internalType": "bool",
          "name": "isVerified",
          "type": "bool"
        },
        {
          "internalType": "address[]",
          "name": "verifiers",
          "type": "address[]"
        }
      ],
      "stateMutability": "view",
      "type": "function",
      "constant": true
    },
    {
      "inputs": [
        {
          "internalType": "uint256",
          "name": "_productId",
          "type": "uint256"
        }
      ],
      "name": "getTrackingHistory",
      "outputs": [
        {
          "components": [
            {
              "internalType": "address",
              "name": "location",
              "type": "address"
            },
            {
              "internalType": "string",
              "name": "status",
              "type": "string"
            },
            {
              "internalType": "uint256",
              "name": "timestamp",
              "type": "uint256"
            },
            {
              "internalType": "string",
              "name": "verificationNote",
              "type": "string"
            },
            {
              "internalType": "address",
              "name": "verifiedBy",
              "type": "address"
            }
          ],
          "internalType": "struct SupplyChain.TrackingInfo[]",
          "name": "",
          "type": "tuple[]"
        }
      ],
      "stateMutability": "view",
      "type": "function",
      "constant": true
    },
    {
      "inputs": [
        {
          "internalType": "uint256",
          "name": "_productId",
          "type": "uint256"
        }
      ],
      "name": "getTransactions",
      "outputs": [
        {
          "components": [
            {
              "internalType": "uint256",
              "name": "productId",
              "type": "uint256"
            },
            {
              "internalType": "address",
              "name": "from",
              "type": "address"
            },
            {
              "internalType": "address",
              "name": "to",
              "type": "address"
            },
            {
              "internalType": "uint256",
              "name": "timestamp",
              "type": "uint256"
            },
            {
              "internalType": "string",
              "name": "note",
              "type": "string"
            }
          ],
          "internalType": "struct SupplyChain.Transaction[]",
          "name": "",
          "type": "tuple[]"
        }
      ],
      "stateMutability": "view",
      "type": "function",
      "constant": true
    }
  ],
  "bytecode": "0x608060405234801561001057600080fd5b50612dbe806100206000396000f3fe608060405234801561001057600080fd5b50600436106100a95760003560e01c8063a142220911610071578063a142220914610182578063b49dbfc21461019e578063b9db15b4146101ba578063c36034e2146101f3578063e097b6b114610223578063e0f6ef8714610257576100a9565b8063293bb2c1146100ae5780633267721c146100ca5780634eaf9db6146100e65780635742177c1461011a5780637acc0b201461014a575b600080fd5b6100c860048036038101906100c39190611f5f565b610275565b005b6100e460048036038101906100df9190611fce565b610734565b005b61010060048036038101906100fb919061202a565b610aa4565b604051610111959493929190612107565b60405180910390f35b610134600480360381019061012f9190612161565b610bbf565b604051610141919061232e565b60405180910390f35b610164600480360381019061015f9190612161565b610d83565b6040516101799998979695949392919061236b565b60405180910390f35b61019c60048036038101906101979190612406565b610f3b565b005b6101b860048036038101906101b39190612491565b611366565b005b6101d460048036038101906101cf9190612161565b61159b565b6040516101ea9a999897969594939291906125cb565b60405180910390f35b61020d60048036038101906102089190612161565b6118d5565b60405161021a91906127bb565b60405180910390f35b61023d6004803603810190610238919061202a565b611b21565b60405161024e9594939291906127dd565b60405180910390f35b61025f611cc4565b60405161026c919061283e565b60405180910390f35b3373ffffffffffffffffffffffffffffffffffffffff1660008085815260200190815260200160002060050160009054906101000a900473ffffffffffffffffffffffffffffffffffffffff1673ffffffffffffffffffffffffffffffffffffffff1614610318576040517f08c379a000000000000000000000000000000000000000000000000000000000815260040161030f906128a5565b60405180910390fd5b60008084815260200190815260200160002060070160009054906101000a900460ff1661037a576040517f08c379a000000000000000000000000000000000000000000000000000000000815260040161037190612911565b60405180910390fd5b600260008481526020019081526020016000206040518060a001604052808581526020013373ffffffffffffffffffffffffffffffffffffffff1681526020018473ffffffffffffffffffffffffffffffffffffffff1681526020014281526020018381525090806001815401808255809150506001900390600052602060002090600502016000909190919091506000820151816000015560208201518160010160006101000a81548173ffffffffffffffffffffffffffffffffffffffff021916908373ffffffffffffffffffffffffffffffffffffffff16021790555060408201518160020160006101000a81548173ffffffffffffffffffffffffffffffffffffffff021916908373ffffffffffffffffffffffffffffffffffffffff1602179055506060820151816003015560808201518160040190816104c09190612b3d565b5050508160008085815260200190815260200160002060050160006101000a81548173ffffffffffffffffffffffffffffffffffffffff021916908373ffffffffffffffffffffffffffffffffffffffff1602179055504260008085815260200190815260200160002060060181905550600160008481526020019081526020016000206040518060a001604052808473ffffffffffffffffffffffffffffffffffffffff1681526020016040518060400160405280600b81526020017f5472616e7366657272656400000000000000000000000000000000000000000081525081526020014281526020018381526020013373ffffffffffffffffffffffffffffffffffffffff16815250908060018154018082558091505060019003906000526020600020906005020160009091909190915060008201518160000160006101000a81548173ffffffffffffffffffffffffffffffffffffffff021916908373ffffffffffffffffffffffffffffffffffffffff16021790555060208201518160010190816106519190612b3d565b506040820151816002015560608201518160030190816106719190612b3d565b5060808201518160040160006101000a81548173ffffffffffffffffffffffffffffffffffffffff021916908373ffffffffffffffffffffffffffffffffffffffff1602179055505050827fcef86d37ba3dc1d682967cde44d8050488734bf53166725b220b4d2e515e9e9333846040516106ed929190612c0f565b60405180910390a2827f86b4c9304217f2b02dc8cd5e59489c2f700e3cd83a9d4e26596a4f06b6846a0f3384604051610727929190612c0f565b60405180910390a2505050565b3373ffffffffffffffffffffffffffffffffffffffff1660008084815260200190815260200160002060050160009054906101000a900473ffffffffffffffffffffffffffffffffffffffff1673ffffffffffffffffffffffffffffffffffffffff16146107d7576040517f08c379a00000000000000000000000000000000000000000000000000000000081526004016107ce906128a5565b60405180910390fd5b60008083815260200190815260200160002060070160019054906101000a900460ff161561083a576040517f08c379a000000000000000000000000000000000000000000000000000000000815260040161083190612c84565b60405180910390fd5b600160008084815260200190815260200160002060070160016101000a81548160ff021916908315150217905550600080838152602001908152602001600020600801339080600181540180825580915050600190039060005260206000200160009091909190916101000a81548173ffffffffffffffffffffffffffffffffffffffff021916908373ffffffffffffffffffffffffffffffffffffffff160217905550600160008381526020019081526020016000206040518060a001604052803373ffffffffffffffffffffffffffffffffffffffff1681526020016040518060400160405280600881526020017f566572696669656400000000000000000000000000000000000000000000000081525081526020014281526020018381526020013373ffffffffffffffffffffffffffffffffffffffff16815250908060018154018082558091505060019003906000526020600020906005020160009091909190915060008201518160000160006101000a81548173ffffffffffffffffffffffffffffffffffffffff021916908373ffffffffffffffffffffffffffffffffffffffff16021790555060208201518160010190816109fe9190612b3d565b50604082015181600201556060820151816003019081610a1e9190612b3d565b5060808201518160040160006101000a81548173ffffffffffffffffffffffffffffffffffffffff021916908373ffffffffffffffffffffffffffffffffffffffff1602179055505050817fab60911bebc6d3ab48620594e409545834da76f4995297ebc48ca5589f25437b33604051610a989190612ca4565b60405180910390a25050565b60026020528160005260406000208181548110610ac057600080fd5b9060005260206000209060050201600091509150508060000154908060010160009054906101000a900473ffffffffffffffffffffffffffffffffffffffff16908060020160009054906101000a900473ffffffffffffffffffffffffffffffffffffffff1690806003015490806004018054610b3c90612960565b80601f0160208091040260200160405190810160405280929190818152602001828054610b6890612960565b8015610bb55780601f10610b8a57610100808354040283529160200191610bb5565b820191906000526020600020905b815481529060010190602001808311610b9857829003601f168201915b5050505050905085565b606060026000838152602001908152602001600020805480602002602001604051908101604052809291908181526020016000905b82821015610d7857838290600052602060002090600502016040518060a0016040529081600082015481526020016001820160009054906101000a900473ffffffffffffffffffffffffffffffffffffffff1673ffffffffffffffffffffffffffffffffffffffff1673ffffffffffffffffffffffffffffffffffffffff1681526020016002820160009054906101000a900473ffffffffffffffffffffffffffffffffffffffff1673ffffffffffffffffffffffffffffffffffffffff1673ffffffffffffffffffffffffffffffffffffffff16815260200160038201548152602001600482018054610ce790612960565b80601f0160208091040260200160405190810160405280929190818152602001828054610d1390612960565b8015610d605780601f10610d3557610100808354040283529160200191610d60565b820191906000526020600020905b815481529060010190602001808311610d4357829003601f168201915b50505050508152505081526020019060010190610bf4565b505050509050919050565b6000602052806000526040600020600091509050806000015490806001018054610dac90612960565b80601f0160208091040260200160405190810160405280929190818152602001828054610dd890612960565b8015610e255780601f10610dfa57610100808354040283529160200191610e25565b820191906000526020600020905b815481529060010190602001808311610e0857829003601f168201915b505050505090806002018054610e3a90612960565b80601f0160208091040260200160405190810160405280929190818152602001828054610e6690612960565b8015610eb35780601f10610e8857610100808354040283529160200191610eb3565b820191906000526020600020905b815481529060010190602001808311610e9657829003601f168201915b5050505050908060030154908060040160009054906101000a900473ffffffffffffffffffffffffffffffffffffffff16908060050160009054906101000a900473ffffffffffffffffffffffffffffffffffffffff16908060060154908060070160009054906101000a900460ff16908060070160019054906101000a900460ff16905089565b60036000815480929190610f4e90612cee565b919050555060405180610140016040528060035481526020018481526020018381526020018281526020013373ffffffffffffffffffffffffffffffffffffffff1681526020013373ffffffffffffffffffffffffffffffffffffffff168152602001428152602001600115158152602001600015158152602001600067ffffffffffffffff811115610fe457610fe3611e34565b5b6040519080825280602002602001820160405280156110125781602001602082028036833780820191505090505b5081525060008060035481526020019081526020016000206000820151816000015560208201518160010190816110499190612b3d565b50604082015181600201908161105f9190612b3d565b506060820151816003015560808201518160040160006101000a81548173ffffffffffffffffffffffffffffffffffffffff021916908373ffffffffffffffffffffffffffffffffffffffff16021790555060a08201518160050160006101000a81548173ffffffffffffffffffffffffffffffffffffffff021916908373ffffffffffffffffffffffffffffffffffffffff16021790555060c0820151816006015560e08201518160070160006101000a81548160ff0219169083151502179055506101008201518160070160016101000a81548160ff021916908315150217905550610120820151816008019080519060200190611160929190611cca565b509050506001600060035481526020019081526020016000206040518060a001604052803373ffffffffffffffffffffffffffffffffffffffff1681526020016040518060400160405280600781526020017f437265617465640000000000000000000000000000000000000000000000000081525081526020014281526020016040518060400160405280600f81526020017f50726f647563742063726561746564000000000000000000000000000000000081525081526020013373ffffffffffffffffffffffffffffffffffffffff16815250908060018154018082558091505060019003906000526020600020906005020160009091909190915060008201518160000160006101000a81548173ffffffffffffffffffffffffffffffffffffffff021916908373ffffffffffffffffffffffffffffffffffffffff16021790555060208201518160010190816112bb9190612b3d565b506040820151816002015560608201518160030190816112db9190612b3d565b5060808201518160040160006101000a81548173ffffffffffffffffffffffffffffffffffffffff021916908373ffffffffffffffffffffffffffffffffffffffff16021790555050506003547faf6ffb6277511513e7d579327cc1fc57f0266df2fb11a60b13487b8c9cd2c3888433604051611359929190612d36565b60405180910390a2505050565b3373ffffffffffffffffffffffffffffffffffffffff1660008085815260200190815260200160002060050160009054906101000a900473ffffffffffffffffffffffffffffffffffffffff1673ffffffffffffffffffffffffffffffffffffffff1614611409576040517f08c379a0000000000000000000000000000000000000000000000000000000008152600401611400906128a5565b60405180910390fd5b600160008481526020019081526020016000206040518060a001604052803373ffffffffffffffffffffffffffffffffffffffff1681526020018481526020014281526020018381526020013373ffffffffffffffffffffffffffffffffffffffff16815250908060018154018082558091505060019003906000526020600020906005020160009091909190915060008201518160000160006101000a81548173ffffffffffffffffffffffffffffffffffffffff021916908373ffffffffffffffffffffffffffffffffffffffff16021790555060208201518160010190816114f49190612b3d565b506040820151816002015560608201518160030190816115149190612b3d565b5060808201518160040160006101000a81548173ffffffffffffffffffffffffffffffffffffffff021916908373ffffffffffffffffffffffffffffffffffffffff1602179055505050827fdc280875b120650ffe3edf5f724f07fd086361a32c2a387fe34b495f5679e77d8360405161158e9190612d66565b60405180910390a2505050565b6000606080600080600080600080606060008060008d815260200190815260200160002060405180610140016040529081600082015481526020016001820180546115e590612960565b80601f016020809104026020016040519081016040528092919081815260200182805461161190612960565b801561165e5780601f106116335761010080835404028352916020019161165e565b820191906000526020600020905b81548152906001019060200180831161164157829003601f168201915b5050505050815260200160028201805461167790612960565b80601f01602080910402602001604051908101604052809291908181526020018280546116a390612960565b80156116f05780601f106116c5576101008083540402835291602001916116f0565b820191906000526020600020905b8154815290600101906020018083116116d357829003601f168201915b50505050508152602001600382015481526020016004820160009054906101000a900473ffffffffffffffffffffffffffffffffffffffff1673ffffffffffffffffffffffffffffffffffffffff1673ffffffffffffffffffffffffffffffffffffffff1681526020016005820160009054906101000a900473ffffffffffffffffffffffffffffffffffffffff1673ffffffffffffffffffffffffffffffffffffffff1673ffffffffffffffffffffffffffffffffffffffff168152602001600682015481526020016007820160009054906101000a900460ff161515151581526020016007820160019054906101000a900460ff161515151581526020016008820180548060200260200160405190810160405280929190818152602001828054801561187457602002820191906000526020600020905b8160009054906101000a900473ffffffffffffffffffffffffffffffffffffffff1673ffffffffffffffffffffffffffffffffffffffff168152602001906001019080831161182a575b5050505050815250509050806000015181602001518260400151836060015184608001518560a001518660c001518760e001518861010001518961012001519a509a509a509a509a509a509a509a509a509a50509193959799509193959799565b606060016000838152602001908152602001600020805480602002602001604051908101604052809291908181526020016000905b82821015611b1657838290600052602060002090600502016040518060a00160405290816000820160009054906101000a900473ffffffffffffffffffffffffffffffffffffffff1673ffffffffffffffffffffffffffffffffffffffff1673ffffffffffffffffffffffffffffffffffffffff16815260200160018201805461199390612960565b80601f01602080910402602001604051908101604052809291908181526020018280546119bf90612960565b8015611a0c5780601f106119e157610100808354040283529160200191611a0c565b820191906000526020600020905b8154815290600101906020018083116119ef57829003601f168201915b5050505050815260200160028201548152602001600382018054611a2f90612960565b80601f0160208091040260200160405190810160405280929190818152602001828054611a5b90612960565b8015611aa85780601f10611a7d57610100808354040283529160200191611aa8565b820191906000526020600020905b815481529060010190602001808311611a8b57829003601f168201915b505050505081526020016004820160009054906101000a900473ffffffffffffffffffffffffffffffffffffffff1673ffffffffffffffffffffffffffffffffffffffff1673ffffffffffffffffffffffffffffffffffffffff16815250508152602001906001019061190a565b505050509050919050565b60016020528160005260406000208181548110611b3d57600080fd5b9060005260206000209060050201600091509150508060000160009054906101000a900473ffffffffffffffffffffffffffffffffffffffff1690806001018054611b8790612960565b80601f0160208091040260200160405190810160405280929190818152602001828054611bb390612960565b8015611c005780601f10611bd557610100808354040283529160200191611c00565b820191906000526020600020905b815481529060010190602001808311611be357829003601f168201915b505050505090806002015490806003018054611c1b90612960565b80601f0160208091040260200160405190810160405280929190818152602001828054611c4790612960565b8015611c945780601f10611c6957610100808354040283529160200191611c94565b820191906000526020600020905b815481529060010190602001808311611c7757829003601f168201915b5050505050908060040160009054906101000a900473ffffffffffffffffffffffffffffffffffffffff16905085565b60035481565b828054828255906000526020600020908101928215611d43579160200282015b82811115611d425782518260006101000a81548173ffffffffffffffffffffffffffffffffffffffff021916908373ffffffffffffffffffffffffffffffffffffffff16021790555091602001919060010190611cea565b5b509050611d509190611d54565b5090565b5b80821115611d6d576000816000905550600101611d55565b5090565b6000604051905090565b600080fd5b600080fd5b6000819050919050565b611d9881611d85565b8114611da357600080fd5b50565b600081359050611db581611d8f565b92915050565b600073ffffffffffffffffffffffffffffffffffffffff82169050919050565b6000611de682611dbb565b9050919050565b611df681611ddb565b8114611e0157600080fd5b50565b600081359050611e1381611ded565b92915050565b600080fd5b600080fd5b6000601f19601f8301169050919050565b7f4e487b7100000000000000000000000000000000000000000000000000000000600052604160045260246000fd5b611e6c82611e23565b810181811067ffffffffffffffff82111715611e8b57611e8a611e34565b5b80604052505050565b6000611e9e611d71565b9050611eaa8282611e63565b919050565b600067ffffffffffffffff821115611eca57611ec9611e34565b5b611ed382611e23565b9050602081019050919050565b82818337600083830152505050565b6000611f02611efd84611eaf565b611e94565b905082815260208101848484011115611f1e57611f1d611e1e565b5b611f29848285611ee0565b509392505050565b600082601f830112611f4657611f45611e19565b5b8135611f56848260208601611eef565b91505092915050565b600080600060608486031215611f7857611f77611d7b565b5b6000611f8686828701611da6565b9350506020611f9786828701611e04565b925050604084013567ffffffffffffffff811115611fb857611fb7611d80565b5b611fc486828701611f31565b9150509250925092565b60008060408385031215611fe557611fe4611d7b565b5b6000611ff385828601611da6565b925050602083013567ffffffffffffffff81111561201457612013611d80565b5b61202085828601611f31565b9150509250929050565b6000806040838503121561204157612040611d7b565b5b600061204f85828601611da6565b925050602061206085828601611da6565b9150509250929050565b61207381611d85565b82525050565b61208281611ddb565b82525050565b600081519050919050565b600082825260208201905092915050565b60005b838110156120c25780820151818401526020810190506120a7565b60008484015250505050565b60006120d982612088565b6120e38185612093565b93506120f38185602086016120a4565b6120fc81611e23565b840191505092915050565b600060a08201905061211c600083018861206a565b6121296020830187612079565b6121366040830186612079565b612143606083018561206a565b818103608083015261215581846120ce565b90509695505050505050565b60006020828403121561217757612176611d7b565b5b600061218584828501611da6565b91505092915050565b600081519050919050565b600082825260208201905092915050565b6000819050602082019050919050565b6121c381611d85565b82525050565b6121d281611ddb565b82525050565b600082825260208201905092915050565b60006121f482612088565b6121fe81856121d8565b935061220e8185602086016120a4565b61221781611e23565b840191505092915050565b600060a08301600083015161223a60008601826121ba565b50602083015161224d60208601826121c9565b50604083015161226060408601826121c9565b50606083015161227360608601826121ba565b506080830151848203608086015261228b82826121e9565b9150508091505092915050565b60006122a48383612222565b905092915050565b6000602082019050919050565b60006122c48261218e565b6122ce8185612199565b9350836020820285016122e0856121aa565b8060005b8581101561231c57848403895281516122fd8582612298565b9450612308836122ac565b925060208a019950506001810190506122e4565b50829750879550505050505092915050565b6000602082019050818103600083015261234881846122b9565b905092915050565b60008115159050919050565b61236581612350565b82525050565b600061012082019050612381600083018c61206a565b8181036020830152612393818b6120ce565b905081810360408301526123a7818a6120ce565b90506123b6606083018961206a565b6123c36080830188612079565b6123d060a0830187612079565b6123dd60c083018661206a565b6123ea60e083018561235c565b6123f861010083018461235c565b9a9950505050505050505050565b60008060006060848603121561241f5761241e611d7b565b5b600084013567ffffffffffffffff81111561243d5761243c611d80565b5b61244986828701611f31565b935050602084013567ffffffffffffffff81111561246a57612469611d80565b5b61247686828701611f31565b925050604061248786828701611da6565b9150509250925092565b6000806000606084860312156124aa576124a9611d7b565b5b60006124b886828701611da6565b935050602084013567ffffffffffffffff8111156124d9576124d8611d80565b5b6124e586828701611f31565b925050604084013567ffffffffffffffff81111561250657612505611d80565b5b61251286828701611f31565b9150509250925092565b600081519050919050565b600082825260208201905092915050565b6000819050602082019050919050565b600061255483836121c9565b60208301905092915050565b6000602082019050919050565b60006125788261251c565b6125828185612527565b935061258d83612538565b8060005b838110156125be5781516125a58882612548565b97506125b083612560565b925050600181019050612591565b5085935050505092915050565b6000610140820190506125e1600083018d61206a565b81810360208301526125f3818c6120ce565b90508181036040830152612607818b6120ce565b9050612616606083018a61206a565b6126236080830189612079565b61263060a0830188612079565b61263d60c083018761206a565b61264a60e083018661235c565b61265861010083018561235c565b81810361012083015261266b818461256d565b90509b9a5050505050505050505050565b600081519050919050565b600082825260208201905092915050565b6000819050602082019050919050565b600060a0830160008301516126c060008601826121c9565b50602083015184820360208601526126d882826121e9565b91505060408301516126ed60408601826121ba565b506060830151848203606086015261270582826121e9565b915050608083015161271a60808601826121c9565b508091505092915050565b600061273183836126a8565b905092915050565b6000602082019050919050565b60006127518261267c565b61275b8185612687565b93508360208202850161276d85612698565b8060005b858110156127a9578484038952815161278a8582612725565b945061279583612739565b925060208a01995050600181019050612771565b50829750879550505050505092915050565b600060208201905081810360008301526127d58184612746565b905092915050565b600060a0820190506127f26000830188612079565b818103602083015261280481876120ce565b9050612813604083018661206a565b818103606083015261282581856120ce565b90506128346080830184612079565b9695505050505050565b6000602082019050612853600083018461206a565b92915050565b7f4e6f74207468652063757272656e74206f776e65720000000000000000000000600082015250565b600061288f601583612093565b915061289a82612859565b602082019050919050565b600060208201905081810360008301526128be81612882565b9050919050565b7f50726f64756374206e6f7420617661696c61626c650000000000000000000000600082015250565b60006128fb601583612093565b9150612906826128c5565b602082019050919050565b6000602082019050818103600083015261292a816128ee565b9050919050565b7f4e487b7100000000000000000000000000000000000000000000000000000000600052602260045260246000fd5b6000600282049050600182168061297857607f821691505b60208210810361298b5761298a612931565b5b50919050565b60008190508160005260206000209050919050565b60006020601f8301049050919050565b600082821b905092915050565b6000600883026129f37fffffffffffffffffffffffffffffffffffffffffffffffffffffffffffffffff826129b6565b6129fd86836129b6565b95508019841693508086168417925050509392505050565b6000819050919050565b6000612a3a612a35612a3084611d85565b612a15565b611d85565b9050919050565b6000819050919050565b612a5483612a1f565b612a68612a6082612a41565b8484546129c3565b825550505050565b600090565b612a7d612a70565b612a88818484612a4b565b505050565b5b81811015612aac57612aa1600082612a75565b600181019050612a8e565b5050565b601f821115612af157612ac281612991565b612acb846129a6565b81016020851015612ada578190505b612aee612ae6856129a6565b830182612a8d565b50505b505050565b600082821c905092915050565b6000612b1460001984600802612af6565b1980831691505092915050565b6000612b2d8383612b03565b9150826002028217905092915050565b612b4682612088565b67ffffffffffffffff811115612b5f57612b5e611e34565b5b612b698254612960565b612b74828285612ab0565b600060209050601f831160018114612ba75760008415612b95578287015190505b612b9f8582612b21565b865550612c07565b601f198416612bb586612991565b60005b82811015612bdd57848901518255600182019150602085019450602081019050612bb8565b86831015612bfa5784890151612bf6601f891682612b03565b8355505b6001600288020188555050505b505050505050565b6000604082019050612c246000830185612079565b612c316020830184612079565b9392505050565b7f50726f6475637420616c72656164792076657269666965640000000000000000600082015250565b6000612c6e601883612093565b9150612c7982612c38565b602082019050919050565b60006020820190508181036000830152612c9d81612c61565b9050919050565b6000602082019050612cb96000830184612079565b92915050565b7f4e487b7100000000000000000000000000000000000000000000000000000000600052601160045260246000fd5b6000612cf982611d85565b91507fffffffffffffffffffffffffffffffffffffffffffffffffffffffffffffffff8203612d2b57612d2a612cbf565b5b600182019050919050565b60006040820190508181036000830152612d5081856120ce565b9050612d5f6020830184612079565b9392505050565b60006020820190508181036000830152612d8081846120ce565b90509291505056fea264697066735822122029c10566cb616fb95c66fa32b3fe236eeff4b30f91b1a4055713c829d1f68ea164736f6c63430008130033",
  "immutableReferences": {},
  "source": "// SPDX-License-Identifier: MIT\r\npragma solidity ^0.8.0;\r\n\r\ncontract SupplyChain {\r\n    struct Product {\r\n        uint256 id;\r\n        string name;\r\n        string description;\r\n        uint256 price;\r\n        address manufacturer;\r\n        address currentOwner;\r\n        uint256 timestamp;\r\n        bool isAvailable;\r\n        bool isVerified;\r\n        address[] verifiers;\r\n    }\r\n\r\n    struct TrackingInfo {\r\n        address location;\r\n        string status;\r\n        uint256 timestamp;\r\n        string verificationNote;\r\n        address verifiedBy;\r\n    }\r\n\r\n    struct Transaction {\r\n        uint256 productId;\r\n        address from;\r\n        address to;\r\n        uint256 timestamp;\r\n        string note;\r\n    }\r\n\r\n    mapping(uint256 => Product) public products;\r\n    mapping(uint256 => TrackingInfo[]) public trackingHistory;\r\n    mapping(uint256 => Transaction[]) public transactions;\r\n    uint256 public productCount;\r\n\r\n    event ProductCreated(uint256 indexed id, string name, address manufacturer);\r\n    event ProductTransferred(uint256 indexed id, address from, address to);\r\n    event StatusUpdated(uint256 indexed id, string status);\r\n    event ProductVerified(uint256 indexed id, address verifier);\r\n    event TransactionRecorded(uint256 indexed id, address from, address to);\r\n\r\n    function createProduct(\r\n        string memory _name,\r\n        string memory _description,\r\n        uint256 _price\r\n    ) public {\r\n        productCount++;\r\n        products[productCount] = Product(\r\n            productCount,\r\n            _name,\r\n            _description,\r\n            _price,\r\n            msg.sender,\r\n            msg.sender,\r\n            block.timestamp,\r\n            true,\r\n            false,\r\n            new address[](0)\r\n        );\r\n\r\n        trackingHistory[productCount].push(\r\n            TrackingInfo(msg.sender, \"Created\", block.timestamp, \"Product created\", msg.sender)\r\n        );\r\n\r\n        emit ProductCreated(productCount, _name, msg.sender);\r\n    }\r\n\r\n    function transferProduct(uint256 _productId, address _newOwner, string memory _note) public {\r\n        require(products[_productId].currentOwner == msg.sender, \"Not the current owner\");\r\n        require(products[_productId].isAvailable, \"Product not available\");\r\n\r\n        // Record transaction\r\n        transactions[_productId].push(Transaction(\r\n            _productId,\r\n            msg.sender,\r\n            _newOwner,\r\n            block.timestamp,\r\n            _note\r\n        ));\r\n\r\n        products[_productId].currentOwner = _newOwner;\r\n        products[_productId].timestamp = block.timestamp;\r\n\r\n        trackingHistory[_productId].push(\r\n            TrackingInfo(_newOwner, \"Transferred\", block.timestamp, _note, msg.sender)\r\n        );\r\n\r\n        emit ProductTransferred(_productId, msg.sender, _newOwner);\r\n        emit TransactionRecorded(_productId, msg.sender, _newOwner);\r\n    }\r\n\r\n    function verifyProduct(uint256 _productId, string memory _verificationNote) public {\r\n        require(products[_productId].currentOwner == msg.sender, \"Not the current owner\");\r\n        require(!products[_productId].isVerified, \"Product already verified\");\r\n\r\n        products[_productId].isVerified = true;\r\n        products[_productId].verifiers.push(msg.sender);\r\n\r\n        trackingHistory[_productId].push(\r\n            TrackingInfo(msg.sender, \"Verified\", block.timestamp, _verificationNote, msg.sender)\r\n        );\r\n\r\n        emit ProductVerified(_productId, msg.sender);\r\n    }\r\n\r\n    function updateStatus(uint256 _productId, string memory _status, string memory _note) public {\r\n        require(products[_productId].currentOwner == msg.sender, \"Not the current owner\");\r\n\r\n        trackingHistory[_productId].push(\r\n            TrackingInfo(msg.sender, _status, block.timestamp, _note, msg.sender)\r\n        );\r\n\r\n        emit StatusUpdated(_productId, _status);\r\n    }\r\n\r\n    function getProduct(uint256 _productId) public view returns (\r\n        uint256 id,\r\n        string memory name,\r\n        string memory description,\r\n        uint256 price,\r\n        address manufacturer,\r\n        address currentOwner,\r\n        uint256 timestamp,\r\n        bool isAvailable,\r\n        bool isVerified,\r\n        address[] memory verifiers\r\n    ) {\r\n        Product memory product = products[_productId];\r\n        return (\r\n            product.id,\r\n            product.name,\r\n            product.description,\r\n            product.price,\r\n            product.manufacturer,\r\n            product.currentOwner,\r\n            product.timestamp,\r\n            product.isAvailable,\r\n            product.isVerified,\r\n            product.verifiers\r\n        );\r\n    }\r\n\r\n    function getTrackingHistory(uint256 _productId) public view returns (TrackingInfo[] memory) {\r\n        return trackingHistory[_productId];\r\n    }\r\n\r\n    function getTransactions(uint256 _productId) public view returns (Transaction[] memory) {\r\n        return transactions[_productId];\r\n    }\r\n} ",
  "sourcePath": "D:\\DesktopData\\MERN\\food_item\\my-app\\contracts\\SupplyChain.sol",
  "compiler": {
    "name": "solc",
    "version": "0.8.19+commit.7dd6d404.Emscripten.clang"
  },
  "schemaVersion": "3.4.16",
  "updatedAt": "2025-05-17T04:32:41.935Z",
  "networkType": "ethereum",
  "devdoc": {
    "kind": "dev",
    "methods": {},
    "version": 1
  },
  "userdoc": {
    "kind": "user",
    "methods": {},
    "version": 1
  }
}